:100000000C9462000C948A000C948A000C948A0070
:100010000C948A000C948A000C948A000C948A0038
:100020000C948A000C948A000C948A000C941F048F
:100030000C948A000C948A000C948A000C948A0018
:100040000C94D5030C948A000C94A3030C947D03A8
:100050000C948A000C948A000C948A000C948A00F8
:100060000C948A000C948A000000000024002700F1
:100070002A0000000000250028002B0000000008D6
:10008000000201000003040700000000000000005F
:1000900000000000230026002900040404040404D6
:1000A0000404020202020202030303030303010227
:1000B00004081020408001020408102001020408F6
:1000C00010203B0511241FBECFEFD8E0DEBFCDBF0F
:1000D00011E0A0E0B1E0E0E0F3E102C005900D9294
:1000E000A234B107D9F722E0A2E4B1E001C01D9229
:1000F000A731B207E1F710E0C2E6D0E004C02197D3
:10010000FE010E947809C136D107C9F70E94730524
:100110000C947E090C940000FC01538D448D252F16
:1001200030E0842F90E0821B930B541710F0CF9691
:10013000089501970895FC01918D828D981761F0C3
:10014000A28DAE0FBF2FB11D5D968C91928D9F5FDA
:100150009F73928F90E008958FEF9FEF0895FC01B9
:10016000918D828D981731F0828DE80FF11D858D6C
:1001700090E008958FEF9FEF0895FC01918D228DFF
:10018000892F90E0805C9F4F821B91098F73992784
:100190000895FC01A48DA80FB92FB11DA35ABF4F1C
:1001A0002C91848D90E001968F739927848FA68976
:1001B000B7892C93A089B1898C91837080648C93CA
:1001C000938D848D981306C00288F389E02D808179
:1001D0008F7D80830895EF92FF920F931F93CF93AB
:1001E000DF93EC0181E0888F9B8D8C8D98131AC072
:1001F000E889F989808185FF15C09FB7F894EE8959
:10020000FF896083E889F9898081837080648083B5
:100210009FBF81E090E0DF91CF911F910F91FF9000
:10022000EF900895F62E0B8D10E00F5F1F4F0F73A8
:100230001127E02E8C8D8E110CC00FB607FCFACF63
:10024000E889F989808185FFF5CFCE010E94C90038
:10025000F1CFEB8DEC0FFD2FF11DE35AFF4FF08234
:100260009FB7F8940B8FEA89FB8980818062CFCF9A
:10027000CF93DF93EC01888D8823B9F0AA89BB89DD
:10028000E889F9898C9185FD03C0808186FD0DC0C8
:100290000FB607FCF7CF8C9185FFF2CF808185FFE9
:1002A000EDCFCE010E94C900E9CFDF91CF91089533
:1002B00081E791E00E94BD0021E0892B09F420E054
:1002C000822F089580E090E0892B29F00E94580148
:1002D00081110C9400000895AF92BF92CF92DF92EB
:1002E000EF92FF920F931F93CF93DF936C017B01EB
:1002F0008B01040F151FEB015E01AE18BF08C0177C
:10030000D10759F06991D601ED91FC910190F081EE
:10031000E02DC6010995892B79F7C501DF91CF91B1
:100320001F910F91FF90EF90DF90CF90BF90AF9013
:10033000089590E0FC01E458FF4F2491FC01E25540
:10034000FF4F3491FC01E656FF4FE491EE23C9F0D4
:10035000222339F0233001F1A8F4213019F12230A1
:1003600029F1F0E0EE0FFF1FEE58FF4FA591B49179
:100370008FB7F894EC91611126C030953E233C93E1
:100380008FBF08952730A9F02830C9F0243049F7ED
:10039000809180008F7D03C0809180008F77809353
:1003A0008000DFCF84B58F7784BDDBCF84B58F7DB0
:1003B000FBCF8091B0008F778093B000D2CF809137
:1003C000B0008F7DF9CF3E2BDACFCF93DF9390E053
:1003D000FC01E255FF4F249186569F4FFC0184910A
:1003E0008823D1F090E0880F991FFC01E859FF4F56
:1003F000A591B491FC01EE58FF4FC591D4916111C4
:100400000EC09FB7F8948C91E22FE0958E238C93C9
:100410002881E223E8839FBFDF91CF9108958FB7B2
:10042000F894EC91E22BEC938FBFF6CF3FB7F894A2
:1004300080916D0190916E01A0916F01B09170015A
:1004400026B5A89B05C02F3F19F00196A11DB11D2F
:100450003FBFBA2FA92F982F8827BC01CD01620F6B
:10046000711D811D911D42E0660F771F881F991F26
:100470004A95D1F708958F929F92AF92BF92CF92F3
:10048000DF92EF92FF924B015C010E9416026B011A
:100490007C010E9416026C197D098E099F09683E35
:1004A000734081059105A8F321E0821A9108A10803
:1004B000B10888EEC80E83E0D81EE11CF11C81143F
:1004C0009104A104B10429F7FF90EF90DF90CF9041
:1004D000BF90AF909F908F9008958F929F92AF9210
:1004E000BF92FF920F931F93CF93DF93FC01F08095
:1004F0008BE08F1508F44AC0828108E512E0081BE2
:10050000110987FD1395000F111F000F111F818125
:10051000C8E8D0E0C81BD10987FDD395CC0FDD1FFB
:10052000CC0FDD1F4E010D2E000CAA08BB08980150
:10053000012E000C440B550B281939094A095B0997
:10054000DB010E94690724EB30E040E050E00E94AC
:100550003F07820E931EA41EB51E8C169D062CF01E
:10056000E801801691060CF4E4012297CC0FDD1F00
:100570002FB7F8948F2D90E0FC01EE0FFF1FE80FCE
:10058000F91FEC5BFE4FD283C1832FBFDF91CF9168
:100590001F910F91FF90BF90AF909F908F90089503
:1005A0001F93CF93DF93EC01162F88818C3008F0D6
:1005B0004EC061E0812F0E94E5018881282F30E044
:1005C000F901EE0FFF1FE20FF31FEC5BFE4F1F73ED
:1005D0006081607C612B608319821A822CE0622F1B
:1005E0000E946C09829FB001112430E020E0AB0131
:1005F000420F531FFA01EE0FFF1FE40FF51FEC5BD4
:10060000FE4F908196FD16C02F5F3F4F2C30310575
:1006100071F781110FC01092800082E080938100F9
:100620001092850010928400B19A80916F008260D0
:1006300080936F00E8818E2F90E0FC01EE0FFF1F8A
:10064000E80FF91FEC5BFE4F808180648083888116
:10065000DF91CF911F910895FC0101900020E9F7EF
:100660003197AF01481B590BBC0181E791E00C9415
:100670006C018F929F92AF92BF920F931F93CF9373
:10068000DF93CDB7DEB7A1970FB6F894DEBF0FBEEC
:10069000CDBF19A2423008F44AE08E010F5D1F4F12
:1006A000842E912CB12CA12CA50194010E947107DC
:1006B000E62FB901CA01EA30F4F4E05DD801EE9307
:1006C0008D01232B242B252B79F790E080E01097C8
:1006D00019F0CD010E942C03A1960FB6F894DEBF4D
:1006E0000FBECDBFDF91CF911F910F91BF90AF9003
:1006F0009F908F900895E95CE1CF1F920F920FB603
:100700000F9211242F933F934F935F936F937F9397
:100710008F939F93AF93BF93EF93FF9381E791E004
:100720000E94C900FF91EF91BF91AF919F918F916E
:100730007F916F915F914F913F912F910F900FBEDD
:100740000F901F9018951F920F920FB60F921124C1
:100750002F938F939F93EF93FF93E0918101F091FB
:1007600082018081E0918701F091880182FD1BC0A8
:10077000908180918A018F5F8F7320918B01821706
:1007800041F0E0918A01F0E0EF58FE4F958F8093A1
:100790008A01FF91EF919F918F912F910F900FBE42
:1007A0000F901F9018958081F4CF1F920F920FB673
:1007B0000F9211242F933F938F939F93AF93BF93E7
:1007C0008091690190916A01A0916B01B0916C01D7
:1007D0003091680123E0230F2D3758F50196A11DB4
:1007E000B11D209368018093690190936A01A093E1
:1007F0006B01B0936C0180916D0190916E01A0919D
:100800006F01B09170010196A11DB11D80936D0122
:1008100090936E01A0936F01B0937001BF91AF915F
:100820009F918F913F912F910F900FBE0F901F902E
:10083000189526E8230F0296A11DB11DD2CF1F9255
:100840000F920FB60F9211242F933F934F935F9304
:100850006F937F938F939F93AF93BF93CF93DF93C8
:10086000EF93FF9380914201C0914301D0E087FF55
:1008700024C01092850010928400809142018F5F05
:100880008093420180914201082E000C990B8C1735
:100890009D0724F4809142018C30C4F18091840042
:1008A00090918500049680349C4908F47AC0809128
:1008B000840090918500049676C080914201082EB4
:1008C000000C990B8C179D07C4F6E09142018E2F06
:1008D000EE0F990BFC01EE0FFF1FE80FF91FEC5B09
:1008E000FE4F808186FFC9CFE09142018E2FEE0F2F
:1008F000990BFC01EE0FFF1FE80FF91FEC5BFE4F99
:10090000808160E08F730E949901B7CF20918400AD
:1009100030918500E09142018E2FEE0F990BFC0182
:10092000EE0FFF1FE80FF91FEC5BFE4F81819281F4
:10093000820F931F9093890080938800E091420179
:100940008E2FEE0F990BFC01EE0FFF1FE80FF91F22
:10095000EC5BFE4F808186FF11C0E09142018E2F3B
:10096000EE0F990BFC01EE0FFF1FE80FF91FEC5B78
:10097000FE4F808161E08F730E949901FF91EF919A
:10098000DF91CF91BF91AF919F918F917F916F91A7
:100990005F914F913F912F910F900FBE0F901F903D
:1009A000189580E49CE990938900809388008FEFEC
:1009B00080934201E3CFCF92DF92EF92FF920F93A9
:1009C0001F93E82FF92F05C00150110921093109A2
:1009D00061F1908196239417B9F305C00150110974
:1009E0002109310911F1908196239413F7CFC12C7D
:1009F000D12CE12CF12C0AC08FEFC81AD80AE80AD2
:100A0000F80A0C151D052E053F0579F08081862317
:100A1000841791F36C2D7D2D8E2D9F2D1F910F919D
:100A2000FF90EF90DF90CF90089560E070E080E05D
:100A300090E01F910F91FF90EF90DF90CF9008957D
:100A4000FC01909143019C3098F481E0890F8093E0
:100A500043019083892F90E0FC01EE0FFF1FE80F08
:100A6000F91FEC5BFE4F88EB9BE092838183089536
:100A70008FEF80830895E1E7F1E01382128288EE20
:100A800093E0A0E0B0E084839583A683B78384E0FD
:100A900091E09183808385EC90E09587848784EC56
:100AA00090E09787868780EC90E0918B808B81EC3B
:100AB00090E0938B828B82EC90E0958B848B86EC1C
:100AC00090E0978B868B118E128E138E148E84E19C
:100AD00092E00E94200581E192E00E9420058EE0D4
:100AE00092E00C942005789484B5826084BD84B52E
:100AF000816084BD85B5826085BD85B5816085BD19
:100B000080916E00816080936E00109281008091D0
:100B10008100826080938100809181008160809358
:100B20008100809180008160809380008091B1007D
:100B300084608093B1008091B00081608093B000A8
:100B400080917A00846080937A0080917A0082603C
:100B500080937A0080917A00816080937A008091FE
:100B60007A00806880937A001092C10061E087E08B
:100B70000E94E50161E086E00E94E50161E085E018
:100B80000E94E50161E084E00E94E50161E08FE000
:100B90000E94E50161E082E00E94E50160E083E0FF
:100BA0000E94E50161E089E00E94E50160E088E0E3
:100BB0000E94E5016EE070E084E192E00E94D002C4
:100BC00070E060E081E192E00E94D00261E070E0BC
:100BD0008EE092E00E94D002C3E0D0E093E2A92E22
:100BE000B12C2DE9222E20E0322E30E0832E30E091
:100BF000932E70E060E084E192E00E946D0270E06C
:100C000060E081E192E00E946D0270E060E08EE0C1
:100C100092E00E946D0260E087E00E94990161E02D
:100C200086E00E94990160E085E00E94990161E000
:100C300084E00E9499016AE070E080E090E00E9408
:100C40003B0264EB70E084E192E00E946D0264EB91
:100C500070E081E192E00E946D0264EB70E08EE052
:100C600092E00E946D0261E087E00E94990160E0DD
:100C700086E00E94990161E085E00E94990160E0B0
:100C800084E00E9499016AE070E080E090E00E94B8
:100C90003B0282E191E00E942C0360E082E00E942E
:100CA0009901CE010197F1F761E082E00E9499017C
:100CB000C5010197F1F760E082E00E949901E1EB44
:100CC000F0E06491F1018491E82FF0E0EE0FFF1F56
:100CD000E057FF4F8591949100E412E42FE030E05B
:100CE000462F0E94DB04611571058105910529F0ED
:100CF0006F5F7F4F8F4F9F4F9F700E94430820E090
:100D000030E040E05FE30E94FA0826E933E44BE07C
:100D10005DE30E94FA086B017C0120E030E040EACC
:100D200051E40E940F0887FF22C08FE191E00E94EA
:100D30002C0361E08FE00E949901A7019601C70191
:100D4000B6010E9467098823F1F08EE291E00E94CB
:100D50002C038AE391E00E942C038EE391E00E9431
:100D60002C0364EF71E080E090E00E943B0281146C
:100D7000910409F43ECF0E945801882309F439CF29
:100D80000E94000036CF2FEF3FEF4FE75FE7C7012C
:100D9000B6010E94670981110DC02FEF3FEF4FE7A9
:100DA0005FE7C701B6010E940F0818161CF482E322
:100DB00091E0CDCF2FEF3FEF4FE75FE4C701B601E2
:100DC0000E94F50818161CF486E391E0C0CF2FEFBF
:100DD0003FEF4FE75FECC701B6010E940F0887FDA8
:100DE000F3CF2AE037ED43EA5BE3C701B6010E9487
:100DF000A3072B013C010E9414086B017C010E9497
:100E000043089B01AC01C301B2010E94A2072B0160
:100E10003C014AE0C701B6010E9439036EE281E756
:100E200091E00E94EB0020E030E040E251E4C30199
:100E3000B2010E94FA082B013C010E9414086B01C8
:100E4000F12CE12C4AE0C701B6010E943903C70129
:100E5000B6010E9443089B01AC01C301B2010E948C
:100E6000A20720E030E040E251E40E94FA080E942C
:100E7000140890E080E04AE00E9439036ACF052E12
:100E800097FB1EF400940E94560757FD07D00E945E
:100E9000710707FC03D04EF40C945607509540950B
:100EA000309521953F4F4F4F5F4F08959095809516
:100EB000709561957F4F8F4F9F4F08950E949307C4
:100EC000A59F900DB49F900DA49F800D911D11249E
:100ED0000895B7FF0C945E070E945E07821B930B78
:100EE0000895A1E21A2EAA1BBB1BFD010DC0AA1F6B
:100EF000BB1FEE1FFF1FA217B307E407F50720F083
:100F0000A21BB30BE40BF50B661F771F881F991FFD
:100F10001A9469F760957095809590959B01AC0146
:100F2000BD01CF010895A29FB001B39FC001A39F4F
:100F3000700D811D1124911DB29F700D811D112412
:100F4000911D08955058BB27AA270E94BA070C94F8
:100F5000BB080E94AD0838F00E94B40820F039F4B4
:100F60009F3F19F426F40C94AA080EF4E095E7FBD1
:100F70000C94A408E92F0E94CC0858F3BA17620712
:100F800073078407950720F079F4A6F50C94EE0812
:100F90000EF4E0950B2EBA2FA02D0B01B901900194
:100FA0000C01CA01A0011124FF27591B99F0593FD8
:100FB00050F4503E68F11A16F040A22F232F342F20
:100FC0004427585FF3CF469537952795A795F0406E
:100FD0005395C9F77EF41F16BA0B620B730B840B83
:100FE000BAF09150A1F0FF0FBB1F661F771F881F3B
:100FF000C2F70EC0BA0F621F731F841F48F4879593
:1010000077956795B795F7959E3F08F0B0CF939584
:10101000880F08F09927EE0F9795879508950E94FD
:10102000800808F481E008950E94D40888F09F5752
:1010300098F0B92F9927B751B0F0E1F0660F771FFC
:10104000881F991F1AF0BA95C9F714C0B13091F0F2
:101050000E94EE08B1E008950C94EE08672F782FF7
:101060008827B85F39F0B93FCCF3869577956795B7
:10107000B395D9F73EF490958095709561957F4F23
:101080008F4F9F4F0895E89409C097FB3EF49095C9
:101090008095709561957F4F8F4F9F4F9923A9F051
:1010A000F92F96E9BB279395F695879577956795E0
:1010B000B795F111F8CFFAF4BB0F11F460FF1BC024
:1010C0006F5F7F4F8F4F9F4F16C0882311F096E9B7
:1010D00011C0772321F09EE8872F762F05C0662365
:1010E00071F096E8862F70E060E02AF09A95660F1E
:1010F000771F881FDAF7880F9695879597F90895D7
:10110000990F0008550FAA0BE0E8FEEF1616170618
:10111000E807F907C0F012161306E407F50798F080
:10112000621B730B840B950B39F40A2661F0232B99
:10113000242B252B21F408950A2609F4A140A69515
:101140008FEF811D811D089597F99F6780E870E0FA
:1011500060E008959FEF80EC089500240A9416162D
:10116000170618060906089500240A941216130695
:10117000140605060895092E0394000C11F4882323
:1011800052F0BB0F40F4BF2B11F460FF04C06F5F3F
:101190007F4F8F4F9F4F089557FD9058440F551F15
:1011A00059F05F3F71F04795880F97FB991F61F0E9
:1011B0009F3F79F087950895121613061406551F60
:1011C000F2CF4695F1DF08C0161617061806991FCC
:1011D000F1CF86957105610508940895E894BB27C1
:1011E00066277727CB0197F908950E94800808F4B5
:1011F0008FEF08950E940D090C94BB080E94AD0862
:1012000038F00E94B40820F0952311F00C94A40843
:101210000C94AA0811240C94EF080E94CC0870F3D7
:10122000959FC1F3950F50E0551F629FF001729F8B
:10123000BB27F00DB11D639FAA27F00DB11DAA1F9A
:10124000649F6627B00DA11D661F829F2227B00DE7
:10125000A11D621F739FB00DA11D621F839FA00D72
:10126000611D221F749F3327A00D611D231F849FC2
:10127000600D211D822F762F6A2F11249F57504019
:101280009AF0F1F088234AF0EE0FFF1FBB1F661F94
:10129000771F881F91505040A9F79E3F510580F05D
:1012A0000C94A4080C94EF085F3FE4F3983ED4F349
:1012B000869577956795B795F795E7959F5FC1F701
:1012C000FE2B880F911D9695879597F908950E949A
:1012D0008008880B990B0895991B79E004C0991F29
:1012E000961708F0961B881F7A95C9F78095089580
:1012F000EE0FFF1F0590F491E02D0994F894FFCFB5
:1013000000000000EB006C018C003801BD009B0068
:10131000AF006E6F206F62737461636C6520005361
:10132000746F726167652066756C6C3A20006E613F
:101330006E00696E66006F76660020636D000D0AB0
:021340000000AB
:00000001FF
